{
  "contractName": "Staking",
  "abi": [
    {
      "constant": true,
      "inputs": [],
      "name": "tx_upper_limit",
      "outputs": [
        {
          "name": "",
          "type": "uint256"
        }
      ],
      "payable": false,
      "stateMutability": "view",
      "type": "function"
    },
    {
      "constant": true,
      "inputs": [],
      "name": "enabled",
      "outputs": [
        {
          "name": "",
          "type": "bool"
        }
      ],
      "payable": false,
      "stateMutability": "view",
      "type": "function"
    },
    {
      "constant": true,
      "inputs": [],
      "name": "worker_balance_limit",
      "outputs": [
        {
          "name": "",
          "type": "uint256"
        }
      ],
      "payable": false,
      "stateMutability": "view",
      "type": "function"
    },
    {
      "constant": true,
      "inputs": [],
      "name": "withdraw_fee_denominator",
      "outputs": [
        {
          "name": "",
          "type": "uint256"
        }
      ],
      "payable": false,
      "stateMutability": "view",
      "type": "function"
    },
    {
      "constant": true,
      "inputs": [],
      "name": "tx_lower_limit",
      "outputs": [
        {
          "name": "",
          "type": "uint256"
        }
      ],
      "payable": false,
      "stateMutability": "view",
      "type": "function"
    },
    {
      "constant": true,
      "inputs": [],
      "name": "user_balance_limit",
      "outputs": [
        {
          "name": "",
          "type": "uint256"
        }
      ],
      "payable": false,
      "stateMutability": "view",
      "type": "function"
    },
    {
      "constant": true,
      "inputs": [],
      "name": "withdraw_upper_limit",
      "outputs": [
        {
          "name": "",
          "type": "uint256"
        }
      ],
      "payable": false,
      "stateMutability": "view",
      "type": "function"
    },
    {
      "constant": true,
      "inputs": [],
      "name": "allowOwnerBeContract",
      "outputs": [
        {
          "name": "",
          "type": "bool"
        }
      ],
      "payable": false,
      "stateMutability": "view",
      "type": "function"
    },
    {
      "constant": true,
      "inputs": [],
      "name": "total_balance",
      "outputs": [
        {
          "name": "",
          "type": "uint256"
        }
      ],
      "payable": false,
      "stateMutability": "view",
      "type": "function"
    },
    {
      "constant": true,
      "inputs": [],
      "name": "withdraw_fee_numerator",
      "outputs": [
        {
          "name": "",
          "type": "uint256"
        }
      ],
      "payable": false,
      "stateMutability": "view",
      "type": "function"
    },
    {
      "constant": true,
      "inputs": [],
      "name": "workers_total_balance",
      "outputs": [
        {
          "name": "",
          "type": "uint256"
        }
      ],
      "payable": false,
      "stateMutability": "view",
      "type": "function"
    },
    {
      "inputs": [],
      "payable": false,
      "stateMutability": "nonpayable",
      "type": "constructor"
    },
    {
      "anonymous": false,
      "inputs": [
        {
          "indexed": false,
          "name": "worker",
          "type": "address"
        },
        {
          "indexed": false,
          "name": "addr",
          "type": "address"
        },
        {
          "indexed": false,
          "name": "amount",
          "type": "uint256"
        },
        {
          "indexed": false,
          "name": "fee",
          "type": "uint256"
        }
      ],
      "name": "RefundMoney",
      "type": "event"
    },
    {
      "anonymous": false,
      "inputs": [
        {
          "indexed": true,
          "name": "from",
          "type": "address"
        },
        {
          "indexed": true,
          "name": "to",
          "type": "address"
        },
        {
          "indexed": false,
          "name": "value",
          "type": "uint256"
        }
      ],
      "name": "Transfer",
      "type": "event"
    },
    {
      "anonymous": false,
      "inputs": [
        {
          "indexed": true,
          "name": "account",
          "type": "address"
        },
        {
          "indexed": false,
          "name": "value",
          "type": "uint256"
        },
        {
          "indexed": false,
          "name": "blockHeight",
          "type": "uint256"
        }
      ],
      "name": "Appeal",
      "type": "event"
    },
    {
      "anonymous": false,
      "inputs": [
        {
          "indexed": true,
          "name": "account",
          "type": "address"
        },
        {
          "indexed": false,
          "name": "selectedWorker",
          "type": "address"
        },
        {
          "indexed": false,
          "name": "value",
          "type": "uint256"
        }
      ],
      "name": "Deposit",
      "type": "event"
    },
    {
      "anonymous": false,
      "inputs": [
        {
          "indexed": true,
          "name": "account",
          "type": "address"
        },
        {
          "indexed": false,
          "name": "selectedWorker",
          "type": "address"
        },
        {
          "indexed": false,
          "name": "value",
          "type": "uint256"
        },
        {
          "indexed": false,
          "name": "blockHeight",
          "type": "uint256"
        }
      ],
      "name": "Withdraw",
      "type": "event"
    },
    {
      "anonymous": false,
      "inputs": [
        {
          "indexed": false,
          "name": "account",
          "type": "address"
        }
      ],
      "name": "AddWorker",
      "type": "event"
    },
    {
      "anonymous": false,
      "inputs": [
        {
          "indexed": false,
          "name": "account",
          "type": "address"
        }
      ],
      "name": "RemoveWorker",
      "type": "event"
    },
    {
      "anonymous": false,
      "inputs": [
        {
          "indexed": false,
          "name": "amount",
          "type": "uint256"
        },
        {
          "indexed": false,
          "name": "total_balance",
          "type": "uint256"
        },
        {
          "indexed": false,
          "name": "address_cnt",
          "type": "uint256"
        },
        {
          "indexed": false,
          "name": "height",
          "type": "uint256"
        }
      ],
      "name": "StatsInterest",
      "type": "event"
    },
    {
      "anonymous": false,
      "inputs": [
        {
          "indexed": false,
          "name": "user",
          "type": "address"
        },
        {
          "indexed": false,
          "name": "amount",
          "type": "uint256"
        },
        {
          "indexed": false,
          "name": "fee",
          "type": "uint256"
        }
      ],
      "name": "AdminAppealRefund",
      "type": "event"
    },
    {
      "constant": false,
      "inputs": [],
      "name": "enableContract",
      "outputs": [],
      "payable": false,
      "stateMutability": "nonpayable",
      "type": "function"
    },
    {
      "constant": false,
      "inputs": [],
      "name": "disableContract",
      "outputs": [],
      "payable": false,
      "stateMutability": "nonpayable",
      "type": "function"
    },
    {
      "constant": true,
      "inputs": [
        {
          "name": "addr",
          "type": "address"
        }
      ],
      "name": "isContract",
      "outputs": [
        {
          "name": "",
          "type": "bool"
        }
      ],
      "payable": false,
      "stateMutability": "view",
      "type": "function"
    },
    {
      "constant": false,
      "inputs": [],
      "name": "deposit",
      "outputs": [],
      "payable": true,
      "stateMutability": "payable",
      "type": "function"
    },
    {
      "constant": false,
      "inputs": [
        {
          "name": "amount",
          "type": "uint256"
        }
      ],
      "name": "withdraw",
      "outputs": [],
      "payable": false,
      "stateMutability": "nonpayable",
      "type": "function"
    },
    {
      "constant": false,
      "inputs": [],
      "name": "appeal",
      "outputs": [],
      "payable": false,
      "stateMutability": "nonpayable",
      "type": "function"
    },
    {
      "constant": true,
      "inputs": [
        {
          "name": "account",
          "type": "address"
        }
      ],
      "name": "balanceOf",
      "outputs": [
        {
          "name": "",
          "type": "uint256"
        }
      ],
      "payable": false,
      "stateMutability": "view",
      "type": "function"
    },
    {
      "constant": true,
      "inputs": [
        {
          "name": "account",
          "type": "address"
        }
      ],
      "name": "getWithdrawnBalance",
      "outputs": [
        {
          "name": "",
          "type": "uint256"
        }
      ],
      "payable": false,
      "stateMutability": "view",
      "type": "function"
    },
    {
      "constant": true,
      "inputs": [
        {
          "name": "account",
          "type": "address"
        }
      ],
      "name": "getAppealedBalance",
      "outputs": [
        {
          "name": "",
          "type": "uint256"
        }
      ],
      "payable": false,
      "stateMutability": "view",
      "type": "function"
    },
    {
      "constant": true,
      "inputs": [
        {
          "name": "account",
          "type": "address"
        }
      ],
      "name": "getInterest",
      "outputs": [
        {
          "name": "",
          "type": "uint256"
        }
      ],
      "payable": false,
      "stateMutability": "view",
      "type": "function"
    },
    {
      "constant": false,
      "inputs": [
        {
          "name": "recipient",
          "type": "address"
        },
        {
          "name": "amount",
          "type": "uint256"
        }
      ],
      "name": "transfer",
      "outputs": [
        {
          "name": "",
          "type": "bool"
        }
      ],
      "payable": false,
      "stateMutability": "nonpayable",
      "type": "function"
    },
    {
      "constant": false,
      "inputs": [
        {
          "name": "addr",
          "type": "address"
        }
      ],
      "name": "refund",
      "outputs": [],
      "payable": true,
      "stateMutability": "payable",
      "type": "function"
    },
    {
      "constant": false,
      "inputs": [
        {
          "name": "account",
          "type": "address"
        }
      ],
      "name": "addWorker",
      "outputs": [],
      "payable": false,
      "stateMutability": "nonpayable",
      "type": "function"
    },
    {
      "constant": false,
      "inputs": [
        {
          "name": "account",
          "type": "address"
        }
      ],
      "name": "removeWorker",
      "outputs": [],
      "payable": false,
      "stateMutability": "nonpayable",
      "type": "function"
    },
    {
      "constant": true,
      "inputs": [
        {
          "name": "account",
          "type": "address"
        }
      ],
      "name": "isWorker",
      "outputs": [
        {
          "name": "",
          "type": "bool"
        }
      ],
      "payable": false,
      "stateMutability": "view",
      "type": "function"
    },
    {
      "constant": true,
      "inputs": [],
      "name": "workersCnt",
      "outputs": [
        {
          "name": "",
          "type": "uint256"
        }
      ],
      "payable": false,
      "stateMutability": "view",
      "type": "function"
    },
    {
      "constant": true,
      "inputs": [
        {
          "name": "account",
          "type": "address"
        }
      ],
      "name": "workerBalanceOf",
      "outputs": [
        {
          "name": "",
          "type": "uint256"
        }
      ],
      "payable": false,
      "stateMutability": "view",
      "type": "function"
    },
    {
      "constant": true,
      "inputs": [
        {
          "name": "worker",
          "type": "address"
        }
      ],
      "name": "getWorkerInterest",
      "outputs": [
        {
          "name": "",
          "type": "uint256"
        }
      ],
      "payable": false,
      "stateMutability": "view",
      "type": "function"
    },
    {
      "constant": false,
      "inputs": [
        {
          "name": "all_interest",
          "type": "uint256"
        }
      ],
      "name": "statsInterestTest",
      "outputs": [],
      "payable": false,
      "stateMutability": "nonpayable",
      "type": "function"
    },
    {
      "constant": false,
      "inputs": [
        {
          "name": "all_interest",
          "type": "uint256"
        }
      ],
      "name": "statsInterest",
      "outputs": [],
      "payable": false,
      "stateMutability": "nonpayable",
      "type": "function"
    },
    {
      "constant": false,
      "inputs": [
        {
          "name": "fee",
          "type": "uint256"
        }
      ],
      "name": "setWithdrawFee",
      "outputs": [],
      "payable": false,
      "stateMutability": "nonpayable",
      "type": "function"
    },
    {
      "constant": false,
      "inputs": [
        {
          "name": "limit",
          "type": "uint256"
        }
      ],
      "name": "setWithdrawnUpperLimit",
      "outputs": [],
      "payable": false,
      "stateMutability": "nonpayable",
      "type": "function"
    },
    {
      "constant": false,
      "inputs": [
        {
          "name": "limit",
          "type": "uint256"
        }
      ],
      "name": "setWorkerBalanceLimit",
      "outputs": [],
      "payable": false,
      "stateMutability": "nonpayable",
      "type": "function"
    },
    {
      "constant": false,
      "inputs": [
        {
          "name": "limit",
          "type": "uint256"
        }
      ],
      "name": "setUserBalanceLimit",
      "outputs": [],
      "payable": false,
      "stateMutability": "nonpayable",
      "type": "function"
    },
    {
      "constant": false,
      "inputs": [
        {
          "name": "limit",
          "type": "uint256"
        }
      ],
      "name": "setTxUpperLimit",
      "outputs": [],
      "payable": false,
      "stateMutability": "nonpayable",
      "type": "function"
    },
    {
      "constant": false,
      "inputs": [
        {
          "name": "limit",
          "type": "uint256"
        }
      ],
      "name": "setTxLowerLimit",
      "outputs": [],
      "payable": false,
      "stateMutability": "nonpayable",
      "type": "function"
    },
    {
      "constant": false,
      "inputs": [
        {
          "name": "allow",
          "type": "bool"
        }
      ],
      "name": "setAllowOwnerBeContract",
      "outputs": [],
      "payable": false,
      "stateMutability": "nonpayable",
      "type": "function"
    },
    {
      "constant": false,
      "inputs": [
        {
          "name": "new_owner",
          "type": "address"
        }
      ],
      "name": "changeOwner",
      "outputs": [],
      "payable": false,
      "stateMutability": "nonpayable",
      "type": "function"
    },
    {
      "constant": false,
      "inputs": [
        {
          "name": "addr",
          "type": "address"
        }
      ],
      "name": "appealRefund",
      "outputs": [],
      "payable": true,
      "stateMutability": "payable",
      "type": "function"
    },
    {
      "constant": false,
      "inputs": [],
      "name": "refundToOwner",
      "outputs": [],
      "payable": false,
      "stateMutability": "nonpayable",
      "type": "function"
    },
    {
      "constant": true,
      "inputs": [],
      "name": "totalSupply",
      "outputs": [
        {
          "name": "",
          "type": "uint256"
        }
      ],
      "payable": false,
      "stateMutability": "view",
      "type": "function"
    },
    {
      "constant": false,
      "inputs": [
        {
          "name": "user",
          "type": "address"
        },
        {
          "name": "balance",
          "type": "uint256"
        },
        {
          "name": "interest",
          "type": "uint256"
        }
      ],
      "name": "setUserBalance",
      "outputs": [],
      "payable": false,
      "stateMutability": "nonpayable",
      "type": "function"
    },
    {
      "constant": false,
      "inputs": [
        {
          "name": "user",
          "type": "address"
        },
        {
          "name": "balance",
          "type": "uint256"
        },
        {
          "name": "interest",
          "type": "uint256"
        }
      ],
      "name": "setWorkerBalance",
      "outputs": [],
      "payable": false,
      "stateMutability": "nonpayable",
      "type": "function"
    }
  ],
  "bytecode": "0x60806040526001600060146101000a81548160ff0219169083151502179055506000600955612710600a5569d3c21bcecceda1000000600b55693f870857a3e0e3800000600c5569043c33c1937564800000600d55670de0b6b3a7640000600e5569043c33c1937564800000600f556000601060006101000a81548160ff0219169083151502179055506000601155600060125534801561009f57600080fd5b50336000806101000a81548173ffffffffffffffffffffffffffffffffffffffff021916908373ffffffffffffffffffffffffffffffffffffffff160217905550615a1780620000f06000396000f30060806040526004361061021a576000357c0100000000000000000000000000000000000000000000000000000000900463ffffffff168063018818e11461021f57806304a8d8b51461024a57806316279055146102a157806318160ddd146102fc5780631905c04014610327578063238dafe01461037e5780632a28ab5b146103ad5780632e1a7d4d146103da57806335bfd63914610407578063367edd321461041e5780633aea0f32146104355780633e4e10d61461048c5780633f1c26fc146104a357806345227c30146104ce5780634c6e228814610525578063523b75ba1461057c57806353b4847e146105a957806360c9f26b146105d657806363581b301461060157806369bcc114146106305780637074854b1461065d57806370a08231146106885780637608c5a0146106df5780637aaa34701461070a578063806ad57e14610761578063894ba833146107a457806390802a30146107bb5780639827bd54146107f15780639b7d0f3a14610848578063a6f9dae114610873578063a9059cbb146108b6578063aa1566451461091b578063b6ac642a14610976578063c0250e9b146109a3578063c4f987a5146109ce578063c817d2ac14610a11578063d0e30db014610a40578063d2ff791f14610a4a578063d974d57a14610a75578063e6c5c45a14610aa2578063ed2b112614610acf578063ed6049df14610afa578063f6a596d314610b27578063fa89401a14610b52575b600080fd5b34801561022b57600080fd5b50610234610b88565b6040518082815260200191505060405180910390f35b34801561025657600080fd5b5061029f600480360381019080803573ffffffffffffffffffffffffffffffffffffffff1690602001909291908035906020019092919080359060200190929190505050610b8e565b005b3480156102ad57600080fd5b506102e2600480360381019080803573ffffffffffffffffffffffffffffffffffffffff169060200190929190505050610d71565b604051808215151515815260200191505060405180910390f35b34801561030857600080fd5b50610311610d84565b6040518082815260200191505060405180910390f35b34801561033357600080fd5b50610368600480360381019080803573ffffffffffffffffffffffffffffffffffffffff169060200190929190505050610d8e565b6040518082815260200191505060405180910390f35b34801561038a57600080fd5b50610393610dda565b604051808215151515815260200191505060405180910390f35b3480156103b957600080fd5b506103d860048036038101908080359060200190929190505050610ded565b005b3480156103e657600080fd5b5061040560048036038101908080359060200190929190505050610fa2565b005b34801561041357600080fd5b5061041c611807565b005b34801561042a57600080fd5b50610433611cdd565b005b34801561044157600080fd5b5061048a600480360381019080803573ffffffffffffffffffffffffffffffffffffffff1690602001909291908035906020019092919080359060200190929190505050611de4565b005b34801561049857600080fd5b506104a1612021565b005b3480156104af57600080fd5b506104b861218c565b6040518082815260200191505060405180910390f35b3480156104da57600080fd5b5061050f600480360381019080803573ffffffffffffffffffffffffffffffffffffffff169060200190929190505050612192565b6040518082815260200191505060405180910390f35b34801561053157600080fd5b50610566600480360381019080803573ffffffffffffffffffffffffffffffffffffffff169060200190929190505050612202565b6040518082815260200191505060405180910390f35b34801561058857600080fd5b506105a7600480360381019080803590602001909291905050506122d6565b005b3480156105b557600080fd5b506105d46004803603810190808035906020019092919050505061248b565b005b3480156105e257600080fd5b506105eb612640565b6040518082815260200191505060405180910390f35b34801561060d57600080fd5b5061062e600480360381019080803515159060200190929190505050612646565b005b34801561063c57600080fd5b5061065b6004803603810190808035906020019092919050505061274d565b005b34801561066957600080fd5b506106726127f3565b6040518082815260200191505060405180910390f35b34801561069457600080fd5b506106c9600480360381019080803573ffffffffffffffffffffffffffffffffffffffff1690602001909291905050506127f9565b6040518082815260200191505060405180910390f35b3480156106eb57600080fd5b506106f4612869565b6040518082815260200191505060405180910390f35b34801561071657600080fd5b5061074b600480360381019080803573ffffffffffffffffffffffffffffffffffffffff16906020019092919050505061287b565b6040518082815260200191505060405180910390f35b34801561076d57600080fd5b506107a2600480360381019080803573ffffffffffffffffffffffffffffffffffffffff1690602001909291905050506128eb565b005b3480156107b057600080fd5b506107b9612bc7565b005b6107ef600480360381019080803573ffffffffffffffffffffffffffffffffffffffff169060200190929190505050612ccd565b005b3480156107fd57600080fd5b50610832600480360381019080803573ffffffffffffffffffffffffffffffffffffffff1690602001909291905050506132c5565b6040518082815260200191505060405180910390f35b34801561085457600080fd5b5061085d613335565b6040518082815260200191505060405180910390f35b34801561087f57600080fd5b506108b4600480360381019080803573ffffffffffffffffffffffffffffffffffffffff16906020019092919050505061333b565b005b3480156108c257600080fd5b50610901600480360381019080803573ffffffffffffffffffffffffffffffffffffffff1690602001909291908035906020019092919050505061353c565b604051808215151515815260200191505060405180910390f35b34801561092757600080fd5b5061095c600480360381019080803573ffffffffffffffffffffffffffffffffffffffff1690602001909291905050506137a9565b604051808215151515815260200191505060405180910390f35b34801561098257600080fd5b506109a160048036038101908080359060200190929190505050613802565b005b3480156109af57600080fd5b506109b86139b0565b6040518082815260200191505060405180910390f35b3480156109da57600080fd5b50610a0f600480360381019080803573ffffffffffffffffffffffffffffffffffffffff1690602001909291905050506139b6565b005b348015610a1d57600080fd5b50610a26613c60565b604051808215151515815260200191505060405180910390f35b610a48613c73565b005b348015610a5657600080fd5b50610a5f61439c565b6040518082815260200191505060405180910390f35b348015610a8157600080fd5b50610aa0600480360381019080803590602001909291905050506143a2565b005b348015610aae57600080fd5b50610acd600480360381019080803590602001909291905050506149e5565b005b348015610adb57600080fd5b50610ae4614b9a565b6040518082815260200191505060405180910390f35b348015610b0657600080fd5b50610b2560048036038101908080359060200190929190505050614ba0565b005b348015610b3357600080fd5b50610b3c614d55565b6040518082815260200191505060405180910390f35b610b86600480360381019080803573ffffffffffffffffffffffffffffffffffffffff169060200190929190505050614d5b565b005b600d5481565b6000809054906101000a900473ffffffffffffffffffffffffffffffffffffffff1673ffffffffffffffffffffffffffffffffffffffff163373ffffffffffffffffffffffffffffffffffffffff16141515610c78576040517f08c379a00000000000000000000000000000000000000000000000000000000081526004018080602001828103825260258152602001807f596f75277265206e6f7420746865206f776e6572206f66207468697320636f6e81526020017f747261637400000000000000000000000000000000000000000000000000000081525060400191505060405180910390fd5b600060149054906101000a900460ff161515610c9357600080fd5b610ca783600661545590919063ffffffff16565b5081600560008573ffffffffffffffffffffffffffffffffffffffff1673ffffffffffffffffffffffffffffffffffffffff1681526020019081526020016000206000018190555080600560008573ffffffffffffffffffffffffffffffffffffffff1673ffffffffffffffffffffffffffffffffffffffff16815260200190815260200160002060050181905550610d4b826011546155ce90919063ffffffff16565b601181905550610d66816011546155ce90919063ffffffff16565b601181905550505050565b600080823b905060008111915050919050565b6000601154905090565b6000600160008373ffffffffffffffffffffffffffffffffffffffff1673ffffffffffffffffffffffffffffffffffffffff168152602001908152602001600020600101549050919050565b600060149054906101000a900460ff1681565b6000809054906101000a900473ffffffffffffffffffffffffffffffffffffffff1673ffffffffffffffffffffffffffffffffffffffff163373ffffffffffffffffffffffffffffffffffffffff16141515610ed7576040517f08c379a00000000000000000000000000000000000000000000000000000000081526004018080602001828103825260258152602001807f596f75277265206e6f7420746865206f776e6572206f66207468697320636f6e81526020017f747261637400000000000000000000000000000000000000000000000000000081525060400191505060405180910390fd5b600060149054906101000a900460ff161515610ef257600080fd5b670de0b6b3a76400008110151515610f98576040517f08c379a000000000000000000000000000000000000000000000000000000000815260040180806020018281038252602c8152602001807f546865207570706572206c696d69742073686f756c642062652067726561746581526020017f72207468616e203120435043000000000000000000000000000000000000000081525060400191505060405180910390fd5b80600f8190555050565b6060600080600060149054906101000a900460ff161515610fc257600080fd5b6000610fce60026155ec565b51111515611044576040517f08c379a00000000000000000000000000000000000000000000000000000000081526004018080602001828103825260188152602001807f546865726520617265206e6f20776f726b657273206e6f77000000000000000081525060200191505060405180910390fd5b670de0b6b3a764000084101515156110ea576040517f08c379a000000000000000000000000000000000000000000000000000000000815260040180806020018281038252602d8152602001807f416d6f756e74206e65656420746f2067726561746572207468616e206f72206581526020017f7175616c20746f2031204350430000000000000000000000000000000000000081525060400191505060405180910390fd5b600f54841115151561118a576040517f08c379a00000000000000000000000000000000000000000000000000000000081526004018080602001828103825260238152602001807f416d6f756e742067726561746572207468616e20746865207570706572206c6981526020017f6d6974000000000000000000000000000000000000000000000000000000000081525060400191505060405180910390fd5b61119e33600661567e90919063ffffffff16565b1515611212576040517f08c379a00000000000000000000000000000000000000000000000000000000081526004018080602001828103825260178152602001807f596f75206469642774206465706f736974206d6f6e657900000000000000000081525060200191505060405180910390fd5b600560003373ffffffffffffffffffffffffffffffffffffffff1673ffffffffffffffffffffffffffffffffffffffff1681526020019081526020016000206000015484111515156112f2576040517f08c379a00000000000000000000000000000000000000000000000000000000081526004018080602001828103825260238152602001807f416d6f756e742067726561746572207468616e206465706f7369746564206d6f81526020017f6e6579000000000000000000000000000000000000000000000000000000000081525060400191505060405180910390fd5b6000600560003373ffffffffffffffffffffffffffffffffffffffff1673ffffffffffffffffffffffffffffffffffffffff168152602001908152602001600020600101541415156113d2576040517f08c379a000000000000000000000000000000000000000000000000000000000815260040180806020018281038252602b8152602001807f596f75206861766520616e20756e68616e646c65642077697468647261776e2081526020017f7472616e73616374696f6e00000000000000000000000000000000000000000081525060400191505060405180910390fd5b6000600560003373ffffffffffffffffffffffffffffffffffffffff1673ffffffffffffffffffffffffffffffffffffffff168152602001908152602001600020600201541415156114b2576040517f08c379a000000000000000000000000000000000000000000000000000000000815260040180806020018281038252602a8152602001807f596f75206861766520616e20756e68616e646c65642061707065616c6564207481526020017f72616e73616374696f6e0000000000000000000000000000000000000000000081525060400191505060405180910390fd5b6114bc60026155ec565b92508260008151811015156114cd57fe5b906020019060200201519150600190505b82518110156115b257600160008373ffffffffffffffffffffffffffffffffffffffff1673ffffffffffffffffffffffffffffffffffffffff1681526020019081526020016000206000015460016000858481518110151561153c57fe5b9060200190602002015173ffffffffffffffffffffffffffffffffffffffff1673ffffffffffffffffffffffffffffffffffffffff1681526020019081526020016000206000015411156115a557828181518110151561159857fe5b9060200190602002015191505b80806001019150506114de565b61160784600560003373ffffffffffffffffffffffffffffffffffffffff1673ffffffffffffffffffffffffffffffffffffffff168152602001908152602001600020600001546156d790919063ffffffff16565b600560003373ffffffffffffffffffffffffffffffffffffffff1673ffffffffffffffffffffffffffffffffffffffff1681526020019081526020016000206000018190555083600560003373ffffffffffffffffffffffffffffffffffffffff1673ffffffffffffffffffffffffffffffffffffffff1681526020019081526020016000206001018190555043600560003373ffffffffffffffffffffffffffffffffffffffff1673ffffffffffffffffffffffffffffffffffffffff1681526020019081526020016000206003018190555081600560003373ffffffffffffffffffffffffffffffffffffffff1673ffffffffffffffffffffffffffffffffffffffff16815260200190815260200160002060040160006101000a81548173ffffffffffffffffffffffffffffffffffffffff021916908373ffffffffffffffffffffffffffffffffffffffff160217905550611771846011546156d790919063ffffffff16565b6011819055503373ffffffffffffffffffffffffffffffffffffffff167ff341246adaac6f497bc2a656f546ab9e182111d630394f0c57c710a59a2cb567838643604051808473ffffffffffffffffffffffffffffffffffffffff1673ffffffffffffffffffffffffffffffffffffffff168152602001838152602001828152602001935050505060405180910390a250505050565b600060149054906101000a900460ff16151561182257600080fd5b61183633600661567e90919063ffffffff16565b15156118aa576040517f08c379a00000000000000000000000000000000000000000000000000000000081526004018080602001828103825260178152602001807f596f75206469642774206465706f736974206d6f6e657900000000000000000081525060200191505060405180910390fd5b6000600560003373ffffffffffffffffffffffffffffffffffffffff1673ffffffffffffffffffffffffffffffffffffffff1681526020019081526020016000206002015414151561198a576040517f08c379a000000000000000000000000000000000000000000000000000000000815260040180806020018281038252602a8152602001807f596f75206861766520616e20756e68616e646c65642061707065616c6564207481526020017f72616e73616374696f6e0000000000000000000000000000000000000000000081525060400191505060405180910390fd5b6000600560003373ffffffffffffffffffffffffffffffffffffffff1673ffffffffffffffffffffffffffffffffffffffff16815260200190815260200160002060010154111515611a6a576040517f08c379a000000000000000000000000000000000000000000000000000000000815260040180806020018281038252602e8152602001807f596f7520686176656e277420616e20756e68616e646c6564207769746864726181526020017f776e207472616e73616374696f6e00000000000000000000000000000000000081525060400191505060405180910390fd5b6006600560003373ffffffffffffffffffffffffffffffffffffffff1673ffffffffffffffffffffffffffffffffffffffff168152602001908152602001600020600301544303111515611b72576040517f08c379a00000000000000000000000000000000000000000000000000000000081526004018080602001828103825260518152602001807f596f752063616e27742061707065616c20756e74696c2074686572652061726581526020017f203620626c6f636b7320746861742068617665206265656e2067656e6572617481526020017f656420616674657220776974686472657700000000000000000000000000000081525060600191505060405180910390fd5b600560003373ffffffffffffffffffffffffffffffffffffffff1673ffffffffffffffffffffffffffffffffffffffff16815260200190815260200160002060010154600560003373ffffffffffffffffffffffffffffffffffffffff1673ffffffffffffffffffffffffffffffffffffffff168152602001908152602001600020600201819055506000600560003373ffffffffffffffffffffffffffffffffffffffff1673ffffffffffffffffffffffffffffffffffffffff168152602001908152602001600020600101819055503373ffffffffffffffffffffffffffffffffffffffff167f06d1e6a26e939dc27f266d986994c68d44ee1bc4ff9af2ebd615b7d60a96fdbd600560003373ffffffffffffffffffffffffffffffffffffffff1673ffffffffffffffffffffffffffffffffffffffff1681526020019081526020016000206002015443604051808381526020018281526020019250505060405180910390a2565b6000809054906101000a900473ffffffffffffffffffffffffffffffffffffffff1673ffffffffffffffffffffffffffffffffffffffff163373ffffffffffffffffffffffffffffffffffffffff16141515611dc7576040517f08c379a00000000000000000000000000000000000000000000000000000000081526004018080602001828103825260258152602001807f596f75277265206e6f7420746865206f776e6572206f66207468697320636f6e81526020017f747261637400000000000000000000000000000000000000000000000000000081525060400191505060405180910390fd5b6001600060146101000a81548160ff021916908315150217905550565b6000809054906101000a900473ffffffffffffffffffffffffffffffffffffffff1673ffffffffffffffffffffffffffffffffffffffff163373ffffffffffffffffffffffffffffffffffffffff16141515611ece576040517f08c379a00000000000000000000000000000000000000000000000000000000081526004018080602001828103825260258152602001807f596f75277265206e6f7420746865206f776e6572206f66207468697320636f6e81526020017f747261637400000000000000000000000000000000000000000000000000000081525060400191505060405180910390fd5b600060149054906101000a900460ff161515611ee957600080fd5b611efd83600261545590919063ffffffff16565b5081600160008573ffffffffffffffffffffffffffffffffffffffff1673ffffffffffffffffffffffffffffffffffffffff1681526020019081526020016000206000018190555080600160008573ffffffffffffffffffffffffffffffffffffffff1673ffffffffffffffffffffffffffffffffffffffff1681526020019081526020016000206001018190555060018060008573ffffffffffffffffffffffffffffffffffffffff1673ffffffffffffffffffffffffffffffffffffffff16815260200190815260200160002060020160006101000a81548160ff021916908315150217905550611ffb826012546155ce90919063ffffffff16565b601281905550612016816012546155ce90919063ffffffff16565b601281905550505050565b6000809054906101000a900473ffffffffffffffffffffffffffffffffffffffff1673ffffffffffffffffffffffffffffffffffffffff163373ffffffffffffffffffffffffffffffffffffffff1614151561210b576040517f08c379a00000000000000000000000000000000000000000000000000000000081526004018080602001828103825260258152602001807f596f75277265206e6f7420746865206f776e6572206f66207468697320636f6e81526020017f747261637400000000000000000000000000000000000000000000000000000081525060400191505060405180910390fd5b6000809054906101000a900473ffffffffffffffffffffffffffffffffffffffff1673ffffffffffffffffffffffffffffffffffffffff166108fc3073ffffffffffffffffffffffffffffffffffffffff16319081150290604051600060405180830381858888f19350505050158015612189573d6000803e3d6000fd5b50565b600b5481565b60006121a882600661567e90919063ffffffff16565b15156121b757600090506121fd565b600560008373ffffffffffffffffffffffffffffffffffffffff1673ffffffffffffffffffffffffffffffffffffffff1681526020019081526020016000206002015490505b919050565b600061221882600261567e90919063ffffffff16565b151561228c576040517f08c379a00000000000000000000000000000000000000000000000000000000081526004018080602001828103825260178152602001807f43616e27742066696e642074686973206163636f756e7400000000000000000081525060200191505060405180910390fd5b600160008373ffffffffffffffffffffffffffffffffffffffff1673ffffffffffffffffffffffffffffffffffffffff168152602001908152602001600020600001549050919050565b6000809054906101000a900473ffffffffffffffffffffffffffffffffffffffff1673ffffffffffffffffffffffffffffffffffffffff163373ffffffffffffffffffffffffffffffffffffffff161415156123c0576040517f08c379a00000000000000000000000000000000000000000000000000000000081526004018080602001828103825260258152602001807f596f75277265206e6f7420746865206f776e6572206f66207468697320636f6e81526020017f747261637400000000000000000000000000000000000000000000000000000081525060400191505060405180910390fd5b600060149054906101000a900460ff1615156123db57600080fd5b670de0b6b3a76400008110151515612481576040517f08c379a00000000000000000000000000000000000000000000000000000000081526004018080602001828103825260298152602001807f546865207570706572206c696d69742073686f756c642067726561746572207481526020017f68616e203120435043000000000000000000000000000000000000000000000081525060400191505060405180910390fd5b80600b8190555050565b6000809054906101000a900473ffffffffffffffffffffffffffffffffffffffff1673ffffffffffffffffffffffffffffffffffffffff163373ffffffffffffffffffffffffffffffffffffffff16141515612575576040517f08c379a00000000000000000000000000000000000000000000000000000000081526004018080602001828103825260258152602001807f596f75277265206e6f7420746865206f776e6572206f66207468697320636f6e81526020017f747261637400000000000000000000000000000000000000000000000000000081525060400191505060405180910390fd5b600060149054906101000a900460ff16151561259057600080fd5b670de0b6b3a76400008110151515612636576040517f08c379a00000000000000000000000000000000000000000000000000000000081526004018080602001828103825260298152602001807f546865207570706572206c696d69742073686f756c642067726561746572207481526020017f68616e203120435043000000000000000000000000000000000000000000000081525060400191505060405180910390fd5b80600c8190555050565b600a5481565b6000809054906101000a900473ffffffffffffffffffffffffffffffffffffffff1673ffffffffffffffffffffffffffffffffffffffff163373ffffffffffffffffffffffffffffffffffffffff16141515612730576040517f08c379a00000000000000000000000000000000000000000000000000000000081526004018080602001828103825260258152602001807f596f75277265206e6f7420746865206f776e6572206f66207468697320636f6e81526020017f747261637400000000000000000000000000000000000000000000000000000081525060400191505060405180910390fd5b80601060006101000a81548160ff02191690831515021790555050565b6060600080600061275e60066155ec565b9350600392506b017cd79c1c9889e3d840000091506127988261278a85886156f090919063ffffffff16565b61572b90919063ffffffff16565b90507f3aad61791be2fbbee00f0635ace929f9c4aa09de97220477d18934bba52971fb816011548651436040518085815260200184815260200183815260200182815260200194505050505060405180910390a15050505050565b600e5481565b600061280f82600661567e90919063ffffffff16565b151561281e5760009050612864565b600560008373ffffffffffffffffffffffffffffffffffffffff1673ffffffffffffffffffffffffffffffffffffffff1681526020019081526020016000206000015490505b919050565b600061287560026155ec565b51905090565b600061289182600661567e90919063ffffffff16565b15156128a057600090506128e6565b600560008373ffffffffffffffffffffffffffffffffffffffff1673ffffffffffffffffffffffffffffffffffffffff1681526020019081526020016000206005015490505b919050565b6000809054906101000a900473ffffffffffffffffffffffffffffffffffffffff1673ffffffffffffffffffffffffffffffffffffffff163373ffffffffffffffffffffffffffffffffffffffff161415156129d5576040517f08c379a00000000000000000000000000000000000000000000000000000000081526004018080602001828103825260258152602001807f596f75277265206e6f7420746865206f776e6572206f66207468697320636f6e81526020017f747261637400000000000000000000000000000000000000000000000000000081525060400191505060405180910390fd5b600060149054906101000a900460ff1615156129f057600080fd5b600160008273ffffffffffffffffffffffffffffffffffffffff1673ffffffffffffffffffffffffffffffffffffffff16815260200190815260200160002060020160009054906101000a900460ff16151515612ab5576040517f08c379a000000000000000000000000000000000000000000000000000000000815260040180806020018281038252601f8152602001807f54686520776f726b65722068617320616c72656164792065786973746564210081525060200191505060405180910390fd5b606060405190810160405280600081526020016000815260200160011515815250600160008373ffffffffffffffffffffffffffffffffffffffff1673ffffffffffffffffffffffffffffffffffffffff168152602001908152602001600020600082015181600001556020820151816001015560408201518160020160006101000a81548160ff021916908315150217905550905050612b6081600261545590919063ffffffff16565b507fdfe9fff807e96a59128afc49ef0f7e8223ec87168044040b283201a35be263be81604051808273ffffffffffffffffffffffffffffffffffffffff1673ffffffffffffffffffffffffffffffffffffffff16815260200191505060405180910390a150565b6000809054906101000a900473ffffffffffffffffffffffffffffffffffffffff1673ffffffffffffffffffffffffffffffffffffffff163373ffffffffffffffffffffffffffffffffffffffff16141515612cb1576040517f08c379a00000000000000000000000000000000000000000000000000000000081526004018080602001828103825260258152602001807f596f75277265206e6f7420746865206f776e6572206f66207468697320636f6e81526020017f747261637400000000000000000000000000000000000000000000000000000081525060400191505060405180910390fd5b60008060146101000a81548160ff021916908315150217905550565b6000806000809054906101000a900473ffffffffffffffffffffffffffffffffffffffff1673ffffffffffffffffffffffffffffffffffffffff163373ffffffffffffffffffffffffffffffffffffffff16141515612dba576040517f08c379a00000000000000000000000000000000000000000000000000000000081526004018080602001828103825260258152602001807f596f75277265206e6f7420746865206f776e6572206f66207468697320636f6e81526020017f747261637400000000000000000000000000000000000000000000000000000081525060400191505060405180910390fd5b600060149054906101000a900460ff161515612dd557600080fd5b612de983600661567e90919063ffffffff16565b1515612e5d576040517f08c379a000000000000000000000000000000000000000000000000000000000815260040180806020018281038252601a8152602001807f546869732061646472657373206973206e6f742061207573657200000000000081525060200191505060405180910390fd5b6000600560008573ffffffffffffffffffffffffffffffffffffffff1673ffffffffffffffffffffffffffffffffffffffff16815260200190815260200160002060020154111515612f3d576040517f08c379a000000000000000000000000000000000000000000000000000000000815260040180806020018281038252602a8152602001807f5468652061707065616c65642062616c616e63652073686f756c64206772656181526020017f746572207468616e20300000000000000000000000000000000000000000000081525060400191505060405180910390fd5b34600560008573ffffffffffffffffffffffffffffffffffffffff1673ffffffffffffffffffffffffffffffffffffffff1681526020019081526020016000206002015414151561301c576040517f08c379a000000000000000000000000000000000000000000000000000000000815260040180806020018281038252602e8152602001807f5468652076616c7565206973206e6f7420657175616c20746f2074686520617081526020017f7065616c65642062616c616e636500000000000000000000000000000000000081525060400191505060405180910390fd5b6006600560008573ffffffffffffffffffffffffffffffffffffffff1673ffffffffffffffffffffffffffffffffffffffff168152602001908152602001600020600301544303111515613124576040517f08c379a00000000000000000000000000000000000000000000000000000000081526004018080602001828103825260518152602001807f596f752063616e27742061707065616c20756e74696c2074686572652061726581526020017f203620626c6f636b7320746861742068617665206265656e2067656e6572617481526020017f656420616674657220776974686472657700000000000000000000000000000081525060600191505060405180910390fd5b6000600560008573ffffffffffffffffffffffffffffffffffffffff1673ffffffffffffffffffffffffffffffffffffffff168152602001908152602001600020600201819055503491506000905060006009541115613206576131a7600a54613199600954856156f090919063ffffffff16565b61572b90919063ffffffff16565b90503373ffffffffffffffffffffffffffffffffffffffff166108fc829081150290604051600060405180830381858888f193505050501580156131ef573d6000803e3d6000fd5b5061320381836156d790919063ffffffff16565b91505b8273ffffffffffffffffffffffffffffffffffffffff166108fc839081150290604051600060405180830381858888f1935050505015801561324c573d6000803e3d6000fd5b507f0abe2d9f6cb47632873333dc111de0a64088babcb9cc3dbf7861782e052ee919838383604051808473ffffffffffffffffffffffffffffffffffffffff1673ffffffffffffffffffffffffffffffffffffffff168152602001838152602001828152602001935050505060405180910390a1505050565b60006132db82600661567e90919063ffffffff16565b15156132ea5760009050613330565b600560008373ffffffffffffffffffffffffffffffffffffffff1673ffffffffffffffffffffffffffffffffffffffff1681526020019081526020016000206001015490505b919050565b600c5481565b6000809054906101000a900473ffffffffffffffffffffffffffffffffffffffff1673ffffffffffffffffffffffffffffffffffffffff163373ffffffffffffffffffffffffffffffffffffffff16141515613425576040517f08c379a00000000000000000000000000000000000000000000000000000000081526004018080602001828103825260258152602001807f596f75277265206e6f7420746865206f776e6572206f66207468697320636f6e81526020017f747261637400000000000000000000000000000000000000000000000000000081525060400191505060405180910390fd5b600060149054906101000a900460ff16151561344057600080fd5b61344981610d71565b156134f957601060009054906101000a900460ff1615156134f8576040517f08c379a00000000000000000000000000000000000000000000000000000000081526004018080602001828103825260218152602001807f446f6e277420616c6c6f7720636f6e747261637420626520746865206f776e6581526020017f720000000000000000000000000000000000000000000000000000000000000081525060400191505060405180910390fd5b5b806000806101000a81548173ffffffffffffffffffffffffffffffffffffffff021916908373ffffffffffffffffffffffffffffffffffffffff16021790555050565b60008060149054906101000a900460ff16151561355857600080fd5b61356c33600661567e90919063ffffffff16565b15156135e0576040517f08c379a000000000000000000000000000000000000000000000000000000000815260040180806020018281038252601b8152602001807f596f7520686176656e2774206465706f7369746564206d6f6e6579000000000081525060200191505060405180910390fd5b81600560003373ffffffffffffffffffffffffffffffffffffffff1673ffffffffffffffffffffffffffffffffffffffff168152602001908152602001600020600001541015151561369a576040517f08c379a000000000000000000000000000000000000000000000000000000000815260040180806020018281038252601e8152602001807f596f752062616c616e6365206973206c657373207468616e2076616c7565000081525060200191505060405180910390fd5b81600560008573ffffffffffffffffffffffffffffffffffffffff1673ffffffffffffffffffffffffffffffffffffffff1681526020019081526020016000206000016000828254019250508190555081600560003373ffffffffffffffffffffffffffffffffffffffff1673ffffffffffffffffffffffffffffffffffffffff168152602001908152602001600020600001600082825403925050819055508273ffffffffffffffffffffffffffffffffffffffff163373ffffffffffffffffffffffffffffffffffffffff167fddf252ad1be2c89b69c2b068fc378daa952ba7f163c4a11628f55a4df523b3ef846040518082815260200191505060405180910390a36001905092915050565b6000600160008373ffffffffffffffffffffffffffffffffffffffff1673ffffffffffffffffffffffffffffffffffffffff16815260200190815260200160002060020160009054906101000a900460ff169050919050565b6000809054906101000a900473ffffffffffffffffffffffffffffffffffffffff1673ffffffffffffffffffffffffffffffffffffffff163373ffffffffffffffffffffffffffffffffffffffff161415156138ec576040517f08c379a00000000000000000000000000000000000000000000000000000000081526004018080602001828103825260258152602001807f596f75277265206e6f7420746865206f776e6572206f66207468697320636f6e81526020017f747261637400000000000000000000000000000000000000000000000000000081525060400191505060405180910390fd5b600060149054906101000a900460ff16151561390757600080fd5b606481111515156139a6576040517f08c379a00000000000000000000000000000000000000000000000000000000081526004018080602001828103825260388152602001807f546865206665652073686f756c642067726561746572207468616e203020616e81526020017f64206c657373207468616e20313030202830202d20312529000000000000000081525060400191505060405180910390fd5b8060098190555050565b600f5481565b6000809054906101000a900473ffffffffffffffffffffffffffffffffffffffff1673ffffffffffffffffffffffffffffffffffffffff163373ffffffffffffffffffffffffffffffffffffffff16141515613aa0576040517f08c379a00000000000000000000000000000000000000000000000000000000081526004018080602001828103825260258152602001807f596f75277265206e6f7420746865206f776e6572206f66207468697320636f6e81526020017f747261637400000000000000000000000000000000000000000000000000000081525060400191505060405180910390fd5b600060149054906101000a900460ff161515613abb57600080fd5b600160008273ffffffffffffffffffffffffffffffffffffffff1673ffffffffffffffffffffffffffffffffffffffff16815260200190815260200160002060020160009054906101000a900460ff161515613b7f576040517f08c379a00000000000000000000000000000000000000000000000000000000081526004018080602001828103825260178152602001807f54686520776f726b6572206e6f7420657869737465642100000000000000000081525060200191505060405180910390fd5b600160008273ffffffffffffffffffffffffffffffffffffffff1673ffffffffffffffffffffffffffffffffffffffff16815260200190815260200160002060008082016000905560018201600090556002820160006101000a81549060ff02191690555050613bf981600261574690919063ffffffff16565b507fdd1d1ef43eed1c680016466b54d74d6224579f63b744a2463faba6c7524e9bbe81604051808273ffffffffffffffffffffffffffffffffffffffff1673ffffffffffffffffffffffffffffffffffffffff16815260200191505060405180910390a150565b601060009054906101000a900460ff1681565b60006060600080600060149054906101000a900460ff161515613c9557600080fd5b6000613ca160026155ec565b51111515613d17576040517f08c379a00000000000000000000000000000000000000000000000000000000081526004018080602001828103825260188152602001807f546865726520617265206e6f20776f726b657273206e6f77000000000000000081525060200191505060405180910390fd5b600e543410151515613d91576040517f08c379a00000000000000000000000000000000000000000000000000000000081526004018080602001828103825260208152602001807f416d6f756e74206c657373207468616e20746865206c6f776572206c696d697481525060200191505060405180910390fd5b600d543411151515613e31576040517f08c379a00000000000000000000000000000000000000000000000000000000081526004018080602001828103825260238152602001807f416d6f756e742067726561746572207468616e20746865207570706572206c6981526020017f6d6974000000000000000000000000000000000000000000000000000000000081525060400191505060405180910390fd5b613e4533600661567e90919063ffffffff16565b15613f365734600560003373ffffffffffffffffffffffffffffffffffffffff1673ffffffffffffffffffffffffffffffffffffffff16815260200190815260200160002060000154019350600c548411151515613f31576040517f08c379a000000000000000000000000000000000000000000000000000000000815260040180806020018281038252602b8152602001807f5573657227732062616c616e63652067726561746572207468616e207468652081526020017f7570706572206c696d697400000000000000000000000000000000000000000081525060400191505060405180910390fd5b613f94565b6000600560003373ffffffffffffffffffffffffffffffffffffffff1673ffffffffffffffffffffffffffffffffffffffff16815260200190815260200160002060000181905550613f9233600661545590919063ffffffff16565b505b613f9e60026155ec565b9250826000815181101515613faf57fe5b906020019060200201519150600190505b825181101561409457600160008373ffffffffffffffffffffffffffffffffffffffff1673ffffffffffffffffffffffffffffffffffffffff1681526020019081526020016000206000015460016000858481518110151561401e57fe5b9060200190602002015173ffffffffffffffffffffffffffffffffffffffff1673ffffffffffffffffffffffffffffffffffffffff16815260200190815260200160002060000154101561408757828181518110151561407a57fe5b9060200190602002015191505b8080600101915050613fc0565b600b5434600160008573ffffffffffffffffffffffffffffffffffffffff1673ffffffffffffffffffffffffffffffffffffffff1681526020019081526020016000206000015401101515614177576040517f08c379a00000000000000000000000000000000000000000000000000000000081526004018080602001828103825260288152602001807f416d6f756e742067726561746572207468616e20776f726b657227732075707081526020017f6572206c696d697400000000000000000000000000000000000000000000000081525060400191505060405180910390fd5b8173ffffffffffffffffffffffffffffffffffffffff166108fc349081150290604051600060405180830381858888f193505050501580156141bd573d6000803e3d6000fd5b5061421334600160008573ffffffffffffffffffffffffffffffffffffffff1673ffffffffffffffffffffffffffffffffffffffff168152602001908152602001600020600001546155ce90919063ffffffff16565b600160008473ffffffffffffffffffffffffffffffffffffffff1673ffffffffffffffffffffffffffffffffffffffff168152602001908152602001600020600001819055506142ae34600560003373ffffffffffffffffffffffffffffffffffffffff1673ffffffffffffffffffffffffffffffffffffffff168152602001908152602001600020600001546155ce90919063ffffffff16565b600560003373ffffffffffffffffffffffffffffffffffffffff1673ffffffffffffffffffffffffffffffffffffffff1681526020019081526020016000206000018190555034601160008282540192505081905550346012600082825401925050819055503373ffffffffffffffffffffffffffffffffffffffff167f5548c837ab068cf56a2c2479df0882a4922fd203edb7517321831d95078c5f628334604051808373ffffffffffffffffffffffffffffffffffffffff1673ffffffffffffffffffffffffffffffffffffffff1681526020018281526020019250505060405180910390a250505050565b60115481565b60606000806000606060008060008060009054906101000a900473ffffffffffffffffffffffffffffffffffffffff1673ffffffffffffffffffffffffffffffffffffffff163373ffffffffffffffffffffffffffffffffffffffff1614151561449a576040517f08c379a00000000000000000000000000000000000000000000000000000000081526004018080602001828103825260258152602001807f596f75277265206e6f7420746865206f776e6572206f66207468697320636f6e81526020017f747261637400000000000000000000000000000000000000000000000000000081525060400191505060405180910390fd5b600060149054906101000a900460ff1615156144b557600080fd5b600060115411151561452f576040517f08c379a000000000000000000000000000000000000000000000000000000000815260040180806020018281038252601e8152602001807f54686520746f74616c2062616c616e636520697320656d707479206e6f77000081525060200191505060405180910390fd5b61453960066155ec565b97506011549650600095505b8751861015614788576145cc876145be600560008c8b81518110151561456757fe5b9060200190602002015173ffffffffffffffffffffffffffffffffffffffff1673ffffffffffffffffffffffffffffffffffffffff168152602001908152602001600020600001548c6156f090919063ffffffff16565b61572b90919063ffffffff16565b945061463a85600560008b8a8151811015156145e457fe5b9060200190602002015173ffffffffffffffffffffffffffffffffffffffff1673ffffffffffffffffffffffffffffffffffffffff168152602001908152602001600020600001546155ce90919063ffffffff16565b600560008a8981518110151561464c57fe5b9060200190602002015173ffffffffffffffffffffffffffffffffffffffff1673ffffffffffffffffffffffffffffffffffffffff1681526020019081526020016000206000018190555061470385600560008b8a8151811015156146ad57fe5b9060200190602002015173ffffffffffffffffffffffffffffffffffffffff1673ffffffffffffffffffffffffffffffffffffffff168152602001908152602001600020600501546155ce90919063ffffffff16565b600560008a8981518110151561471557fe5b9060200190602002015173ffffffffffffffffffffffffffffffffffffffff1673ffffffffffffffffffffffffffffffffffffffff16815260200190815260200160002060050181905550614775856011546155ce90919063ffffffff16565b6011819055508580600101965050614545565b601254965061479760026155ec565b9350600092505b83518310156149885783838151811015156147b557fe5b9060200190602002015191506148288761481a600160008673ffffffffffffffffffffffffffffffffffffffff1673ffffffffffffffffffffffffffffffffffffffff168152602001908152602001600020600001548c6156f090919063ffffffff16565b61572b90919063ffffffff16565b905061487f81600160008573ffffffffffffffffffffffffffffffffffffffff1673ffffffffffffffffffffffffffffffffffffffff168152602001908152602001600020600001546155ce90919063ffffffff16565b600160008473ffffffffffffffffffffffffffffffffffffffff1673ffffffffffffffffffffffffffffffffffffffff1681526020019081526020016000206000018190555061491a81600160008573ffffffffffffffffffffffffffffffffffffffff1673ffffffffffffffffffffffffffffffffffffffff168152602001908152602001600020600101546155ce90919063ffffffff16565b600160008473ffffffffffffffffffffffffffffffffffffffff1673ffffffffffffffffffffffffffffffffffffffff16815260200190815260200160002060010181905550614975816012546155ce90919063ffffffff16565b601281905550828060010193505061479e565b7f3aad61791be2fbbee00f0635ace929f9c4aa09de97220477d18934bba52971fb896011548a51436040518085815260200184815260200183815260200182815260200194505050505060405180910390a1505050505050505050565b6000809054906101000a900473ffffffffffffffffffffffffffffffffffffffff1673ffffffffffffffffffffffffffffffffffffffff163373ffffffffffffffffffffffffffffffffffffffff16141515614acf576040517f08c379a00000000000000000000000000000000000000000000000000000000081526004018080602001828103825260258152602001807f596f75277265206e6f7420746865206f776e6572206f66207468697320636f6e81526020017f747261637400000000000000000000000000000000000000000000000000000081525060400191505060405180910390fd5b600060149054906101000a900460ff161515614aea57600080fd5b670de0b6b3a76400008110151515614b90576040517f08c379a00000000000000000000000000000000000000000000000000000000081526004018080602001828103825260298152602001807f546865206c6f776572206c696d69742073686f756c642067726561746572207481526020017f68616e203120435043000000000000000000000000000000000000000000000081525060400191505060405180910390fd5b80600e8190555050565b60095481565b6000809054906101000a900473ffffffffffffffffffffffffffffffffffffffff1673ffffffffffffffffffffffffffffffffffffffff163373ffffffffffffffffffffffffffffffffffffffff16141515614c8a576040517f08c379a00000000000000000000000000000000000000000000000000000000081526004018080602001828103825260258152602001807f596f75277265206e6f7420746865206f776e6572206f66207468697320636f6e81526020017f747261637400000000000000000000000000000000000000000000000000000081525060400191505060405180910390fd5b600060149054906101000a900460ff161515614ca557600080fd5b670de0b6b3a76400008110151515614d4b576040517f08c379a00000000000000000000000000000000000000000000000000000000081526004018080602001828103825260298152602001807f546865207570706572206c696d69742073686f756c642067726561746572207481526020017f68616e203120435043000000000000000000000000000000000000000000000081525060400191505060405180910390fd5b80600d8190555050565b60125481565b600080614d7233600261567e90919063ffffffff16565b1515614de6576040517f08c379a00000000000000000000000000000000000000000000000000000000081526004018080602001828103825260138152602001807f596f75277265206e6f74206120776f726b65720000000000000000000000000081525060200191505060405180910390fd5b614dfa83600661567e90919063ffffffff16565b1515614e6e576040517f08c379a00000000000000000000000000000000000000000000000000000000081526004018080602001828103825260168152602001807f5468652061646472206973206e6f74206120757365720000000000000000000081525060200191505060405180910390fd5b6000600560008573ffffffffffffffffffffffffffffffffffffffff1673ffffffffffffffffffffffffffffffffffffffff16815260200190815260200160002060010154111515614f4e576040517f08c379a000000000000000000000000000000000000000000000000000000000815260040180806020018281038252602b8152602001807f5468652077697468647261776e2062616c616e63652073686f756c642067726581526020017f61746572207468616e203000000000000000000000000000000000000000000081525060400191505060405180910390fd5b34600560008573ffffffffffffffffffffffffffffffffffffffff1673ffffffffffffffffffffffffffffffffffffffff1681526020019081526020016000206001015414151561502d576040517f08c379a000000000000000000000000000000000000000000000000000000000815260040180806020018281038252602f8152602001807f5468652076616c7565206973206e6f7420657175616c20746f2074686520776981526020017f7468647261776e2062616c616e6365000000000000000000000000000000000081525060400191505060405180910390fd5b3373ffffffffffffffffffffffffffffffffffffffff16600560008573ffffffffffffffffffffffffffffffffffffffff1673ffffffffffffffffffffffffffffffffffffffff16815260200190815260200160002060040160009054906101000a900473ffffffffffffffffffffffffffffffffffffffff1673ffffffffffffffffffffffffffffffffffffffff16141515615132576040517f08c379a000000000000000000000000000000000000000000000000000000000815260040180806020018281038252601e8152602001807f596f75277265206e6f74207468652073656c656374656420776f726b6572000081525060200191505060405180910390fd5b6000600560008573ffffffffffffffffffffffffffffffffffffffff1673ffffffffffffffffffffffffffffffffffffffff1681526020019081526020016000206001018190555034600160003373ffffffffffffffffffffffffffffffffffffffff1673ffffffffffffffffffffffffffffffffffffffff1681526020019081526020016000206000015411156152645761521934600160003373ffffffffffffffffffffffffffffffffffffffff1673ffffffffffffffffffffffffffffffffffffffff168152602001908152602001600020600001546156d790919063ffffffff16565b600160003373ffffffffffffffffffffffffffffffffffffffff1673ffffffffffffffffffffffffffffffffffffffff168152602001908152602001600020600001819055506152ad565b6000600160003373ffffffffffffffffffffffffffffffffffffffff1673ffffffffffffffffffffffffffffffffffffffff168152602001908152602001600020600001819055505b3491506000905060006009541115615347576152e8600a546152da600954856156f090919063ffffffff16565b61572b90919063ffffffff16565b90503373ffffffffffffffffffffffffffffffffffffffff166108fc829081150290604051600060405180830381858888f19350505050158015615330573d6000803e3d6000fd5b5061534481836156d790919063ffffffff16565b91505b8273ffffffffffffffffffffffffffffffffffffffff166108fc839081150290604051600060405180830381858888f1935050505015801561538d573d6000803e3d6000fd5b506153a3346012546156d790919063ffffffff16565b6012819055507f8ee374c164f9fbbd746734391659eee077b452415789496cc7c56a718d286a0333848484604051808573ffffffffffffffffffffffffffffffffffffffff1673ffffffffffffffffffffffffffffffffffffffff1681526020018473ffffffffffffffffffffffffffffffffffffffff1673ffffffffffffffffffffffffffffffffffffffff16815260200183815260200182815260200194505050505060405180910390a1505050565b60008260000160008373ffffffffffffffffffffffffffffffffffffffff1673ffffffffffffffffffffffffffffffffffffffff16815260200190815260200160002060009054906101000a900460ff16156154b457600090506155c8565b60018360000160008473ffffffffffffffffffffffffffffffffffffffff1673ffffffffffffffffffffffffffffffffffffffff16815260200190815260200160002060006101000a81548160ff02191690831515021790555082600201805490508360010160008473ffffffffffffffffffffffffffffffffffffffff1673ffffffffffffffffffffffffffffffffffffffff16815260200190815260200160002081905550826002018290806001815401808255809150509060018203906000526020600020016000909192909190916101000a81548173ffffffffffffffffffffffffffffffffffffffff021916908373ffffffffffffffffffffffffffffffffffffffff16021790555050600190505b92915050565b60008082840190508381101515156155e257fe5b8091505092915050565b60608160020180548060200260200160405190810160405280929190818152602001828054801561567257602002820191906000526020600020905b8160009054906101000a900473ffffffffffffffffffffffffffffffffffffffff1673ffffffffffffffffffffffffffffffffffffffff1681526020019060010190808311615628575b50505050509050919050565b60008260000160008373ffffffffffffffffffffffffffffffffffffffff1673ffffffffffffffffffffffffffffffffffffffff16815260200190815260200160002060009054906101000a900460ff16905092915050565b60008282111515156156e557fe5b818303905092915050565b60008060008414156157055760009150615724565b828402905082848281151561571657fe5b0414151561572057fe5b8091505b5092915050565b600080828481151561573957fe5b0490508091505092915050565b6000806000808560000160008673ffffffffffffffffffffffffffffffffffffffff1673ffffffffffffffffffffffffffffffffffffffff16815260200190815260200160002060009054906101000a900460ff1615156157aa5760009350615991565b60008660000160008773ffffffffffffffffffffffffffffffffffffffff1673ffffffffffffffffffffffffffffffffffffffff16815260200190815260200160002060006101000a81548160ff021916908315150217905550856002018054905092508560010160008673ffffffffffffffffffffffffffffffffffffffff1673ffffffffffffffffffffffffffffffffffffffff168152602001908152602001600020549150856002016001840381548110151561586657fe5b9060005260206000200160009054906101000a900473ffffffffffffffffffffffffffffffffffffffff1690508086600201838154811015156158a557fe5b9060005260206000200160006101000a81548173ffffffffffffffffffffffffffffffffffffffff021916908373ffffffffffffffffffffffffffffffffffffffff160217905550818660010160008373ffffffffffffffffffffffffffffffffffffffff1673ffffffffffffffffffffffffffffffffffffffff16815260200190815260200160002081905550856002016001840381548110151561594757fe5b9060005260206000200160006101000a81549073ffffffffffffffffffffffffffffffffffffffff02191690558560020180548091906001900361598b919061599a565b50600193505b50505092915050565b8154818355818111156159c1578183600052602060002091820191016159c091906159c6565b5b505050565b6159e891905b808211156159e45760008160009055506001016159cc565b5090565b905600a165627a7a723058207ef356918a4cf799aba6fee35c190ea473da2430d28183742f86fed75b74d2de0029",
  "source": "pragma solidity ^0.4.24;\n\nimport \"./lib/safeMath.sol\";\nimport \"./lib/set.sol\";\n\nimport \"./interfaces/IAdmin.sol\";\nimport \"./interfaces/IStaking.sol\";\nimport \"./interfaces/IWorker.sol\";\n\ncontract Staking is IAdmin, IStaking, IWorker {\n    using Set for Set.Data;\n    using SafeMath for uint256;\n\n    address owner; // owner has permissions to modify parameters\n    bool public enabled = true; // if upgrade contract, then the old contract should be disabled\n\n    // workers\n    struct Worker {\n        uint256 balance;\n        uint256 interest;\n        bool existed;\n    }\n\n    mapping(address => Worker) internal workers;\n    Set.Data private workers_list; // for iterations.\n\n    // users\n    struct User {\n        uint256 balance;\n        uint256 withdrawnBalance; // If the withdrawn-balance not empty, you can't withdraw.\n        uint256 appealedBalance; // If the appeal-balane not empty, you can't withdraw.\n        uint256 lastWithdrawnHeight; // When you submit a appeal, your height should greater than the lastWithdrawnHeight.\n        address lastSelectedWorker; // The worker specified.\n        uint256 interest; // interest amount\n    }\n\n    mapping(address => User) internal users;\n    Set.Data private users_list; // for iterations.\n\n    // paramaeters\n    uint256 public withdraw_fee_numerator = 0; // fee of withdraw\n    uint256 public withdraw_fee_denominator = 10000; // true_fee = value * withdraw_fee_numerator / withdraw_fee_denominator\n    uint256 public worker_balance_limit = 1000000 ether; // The upper limit for worker balance\n    uint256 public user_balance_limit = 300000 ether; // The upper limit per users\n    uint256 public tx_upper_limit = 20000 ether; // The upper limit per tx\n    uint256 public tx_lower_limit = 1 ether; // The lower limit per tx\n    uint256 public withdraw_upper_limit = 20000 ether; // The upper limit when withdraw\n    bool public allowOwnerBeContract = false; // If allow the owner be a contract\n\n    // stats\n    uint256 public total_balance = 0;\n    uint256 public workers_total_balance = 0;\n\n    modifier onlyOwner() {\n        require(msg.sender == owner, \"You're not the owner of this contract\");\n        _;\n    }\n    modifier onlyEnabled() {\n        require(enabled);\n        _;\n    }\n    modifier haveWorkers() {\n        require(workers_list.getAll().length > 0, \"There are no workers now\");\n        _;\n    }\n\n    constructor() public {\n        owner = msg.sender;\n    }\n\n    // owner can enable and disable rnode contract\n    function enableContract() public onlyOwner {\n        enabled = true;\n    }\n\n    function disableContract() public onlyOwner {\n        enabled = false;\n    }\n\n    // judge if an address is a contract address\n    function isContract(address addr) public view returns (bool) {\n        uint256 size;\n        assembly {\n            size := extcodesize(addr)\n        }\n        return size > 0;\n    }\n\n    // User\n    /**\n     * User deposit money to the system, system select a worker then send the money to it.\n     * Then record the amount to the user's account.\n     * If the user's withdrawn account has money, he can't deposit.\n     * Emits a {Deposit} event.\n     */\n    function deposit() external payable onlyEnabled haveWorkers {\n        require(\n            msg.value >= tx_lower_limit,\n            \"Amount less than the lower limit\"\n        );\n        require(\n            msg.value <= tx_upper_limit,\n            \"Amount greater than the upper limit\"\n        );\n        if (users_list.contains(msg.sender)) {\n            // check the upper limit\n            uint256 balance = users[msg.sender].balance + msg.value;\n            require(\n                balance <= user_balance_limit,\n                \"User's balance greater than the upper limit\"\n            );\n        } else {\n            users[msg.sender].balance = 0;\n            users_list.insert(msg.sender);\n        }\n        // select worker, find the minest account\n        address[] memory items = workers_list.getAll();\n        address selected = items[0];\n        for (uint256 i = 1; i < items.length; i++) {\n            if (workers[items[i]].balance < workers[selected].balance) {\n                selected = items[i];\n            }\n        }\n        // check upper limit of the worker\n        require(\n            (workers[selected].balance + msg.value) < worker_balance_limit,\n            \"Amount greater than worker's upper limit\"\n        );\n\n        // transfer\n        selected.transfer(msg.value);\n\n        // worker balance\n        workers[selected].balance = workers[selected].balance.add(msg.value);\n\n        // user balance\n        users[msg.sender].balance = users[msg.sender].balance.add(msg.value);\n\n        // total\n        total_balance += msg.value;\n        workers_total_balance += msg.value;\n\n        // emit event\n        emit Deposit(msg.sender, selected, msg.value);\n    }\n\n    /**\n     * User withdraw money. The system select a worker and emit a Event to notify it.\n     * Move the withdrawn money to the withdrawn account, wait until the worker refund.\n     * If the user's appeal account has money, he can't withdraw.\n     * Emits a {Withdraw} event.\n     */\n    function withdraw(uint256 amount) external onlyEnabled haveWorkers {\n        require(\n            amount >= 1 ether,\n            \"Amount need to greater than or equal to 1 CPC\"\n        );\n        require(\n            amount <= withdraw_upper_limit,\n            \"Amount greater than the upper limit\"\n        );\n        require(users_list.contains(msg.sender), \"You did't deposit money\");\n        require(\n            amount <= users[msg.sender].balance,\n            \"Amount greater than deposited money\"\n        );\n        require(\n            users[msg.sender].withdrawnBalance == 0,\n            \"You have an unhandled withdrawn transaction\"\n        );\n        require(\n            users[msg.sender].appealedBalance == 0,\n            \"You have an unhandled appealed transaction\"\n        );\n        // select worker\n        address[] memory items = workers_list.getAll();\n        address selected = items[0];\n        for (uint256 i = 1; i < items.length; i++) {\n            if (workers[items[i]].balance > workers[selected].balance) {\n                selected = items[i];\n            }\n        }\n\n        // transfer the balance to the withdrawn balance\n        users[msg.sender].balance = users[msg.sender].balance.sub(amount);\n        users[msg.sender].withdrawnBalance = amount;\n        users[msg.sender].lastWithdrawnHeight = block.number;\n        users[msg.sender].lastSelectedWorker = selected;\n\n        // total\n        total_balance = total_balance.sub(amount);\n\n        // emit event\n        emit Withdraw(msg.sender, selected, amount, block.number);\n    }\n\n    /**\n     * When the user's withdrawn account has money,\n     * and the block height minus withdrawn height greater than 6,\n     * the user can submit an appeal.\n     * Emits an {Appeal} event.\n     */\n    function appeal() external onlyEnabled {\n        require(users_list.contains(msg.sender), \"You did't deposit money\");\n        require(\n            users[msg.sender].appealedBalance == 0,\n            \"You have an unhandled appealed transaction\"\n        );\n        require(\n            users[msg.sender].withdrawnBalance > 0,\n            \"You haven't an unhandled withdrawn transaction\"\n        );\n        require(\n            block.number - users[msg.sender].lastWithdrawnHeight > 6,\n            \"You can't appeal until there are 6 blocks that have been generated after withdrew\"\n        );\n        users[msg.sender].appealedBalance = users[msg.sender].withdrawnBalance;\n        users[msg.sender].withdrawnBalance = 0;\n        emit Appeal(\n            msg.sender,\n            users[msg.sender].appealedBalance,\n            block.number\n        );\n    }\n\n    /**\n     * Returns the amount of balance owned by `account`.\n     */\n    function balanceOf(address account) external view returns (uint256) {\n        if (!users_list.contains(account)) {\n            return 0;\n        }\n        return users[account].balance;\n    }\n\n    /**\n     * Returns the amount of withdrawn balance owned by `account`.\n     */\n    function getWithdrawnBalance(address account)\n        external\n        view\n        returns (uint256)\n    {\n        if (!users_list.contains(account)) {\n            return 0;\n        }\n        return users[account].withdrawnBalance;\n    }\n\n    /**\n     * Returns the amount of appealed balance owned by `account`.\n     */\n    function getAppealedBalance(address account)\n        external\n        view\n        returns (uint256)\n    {\n        if (!users_list.contains(account)) {\n            return 0;\n        }\n        return users[account].appealedBalance;\n    }\n\n    /**\n     * Returns the amount of interest owned by `account`.\n     */\n    function getInterest(address account) external view returns (uint256) {\n        if (!users_list.contains(account)) {\n            return 0;\n        }\n        return users[account].interest;\n    }\n\n    /**\n     * Moves `amount` tokens from the caller's account to `recipient`.\n     * Returns a boolean value indicating whether the operation succeeded.\n     *\n     * Emits a {Transfer} event.\n     */\n    function transfer(address recipient, uint256 amount)\n        external\n        onlyEnabled\n        returns (bool)\n    {\n        require(users_list.contains(msg.sender), \"You haven't deposited money\");\n        require(\n            users[msg.sender].balance >= amount,\n            \"You balance is less than value\"\n        );\n        users[recipient].balance += amount;\n        users[msg.sender].balance -= amount;\n        emit Transfer(msg.sender, recipient, amount);\n        return true;\n    }\n\n    // Worker\n    /**\n     * Worker refund money to user when user submit withdraw request.\n     * Emits a {RefundMoney} event.\n     */\n    function refund(address addr) external payable {\n        require(workers_list.contains(msg.sender), \"You're not a worker\");\n        require(users_list.contains(addr), \"The addr is not a user\");\n        require(\n            users[addr].withdrawnBalance > 0,\n            \"The withdrawn balance should greater than 0\"\n        );\n        require(\n            users[addr].withdrawnBalance == msg.value,\n            \"The value is not equal to the withdrawn balance\"\n        );\n        require(\n            users[addr].lastSelectedWorker == msg.sender,\n            \"You're not the selected worker\"\n        );\n        users[addr].withdrawnBalance = 0;\n        if (workers[msg.sender].balance > msg.value) {\n            workers[msg.sender].balance = workers[msg.sender].balance.sub(\n                msg.value\n            );\n        } else {\n            workers[msg.sender].balance = 0;\n        }\n        //  worker \n        uint256 value = msg.value;\n        uint256 fee = 0;\n        if (withdraw_fee_numerator > 0) {\n            fee = value.mul(withdraw_fee_numerator).div(\n                withdraw_fee_denominator\n            );\n            msg.sender.transfer(fee);\n            value = value.sub(fee);\n        }\n        addr.transfer(value);\n\n        // stats\n        workers_total_balance = workers_total_balance.sub(msg.value);\n\n        emit RefundMoney(msg.sender, addr, value, fee);\n    }\n\n    // Admin\n\n    /**\n     * Add new worker to the system.\n     * Returns a boolean value indicating whether the operation succeeded.\n     * Emits a {AddWorker} event.\n     */\n    function addWorker(address account) external onlyOwner onlyEnabled {\n        require(!workers[account].existed, \"The worker has already existed!\");\n        workers[account] = Worker({balance: 0, existed: true, interest: 0});\n        workers_list.insert(account);\n        emit AddWorker(account);\n    }\n\n    /**\n     * Remove a existed worker from system.\n     * Returns a boolean value indicating whether the operation succeeded.\n     * Emits a {RemoveWorker} event.\n     */\n    function removeWorker(address account) external onlyOwner onlyEnabled {\n        require(workers[account].existed, \"The worker not existed!\");\n        delete workers[account];\n        workers_list.remove(account);\n        emit RemoveWorker(account);\n    }\n\n    /**\n     * Check an address whether the worker.\n     */\n    function isWorker(address account) external view returns (bool) {\n        return workers[account].existed;\n    }\n\n    /**\n     * Count of all workers\n     */\n    function workersCnt() external view returns (uint256) {\n        return workers_list.getAll().length;\n    }\n\n    /**\n     * Returns the amount of balance owned by `account`.\n     */\n    function workerBalanceOf(address account) external view returns (uint256) {\n        require(workers_list.contains(account), \"Can't find this account\");\n        return workers[account].balance;\n    }\n\n    function getWorkerInterest(address worker) external view returns (uint256) {\n        return workers[worker].interest;\n    }\n\n    function statsInterestTest(uint256 all_interest) external {\n        address[] memory items = users_list.getAll();\n        uint256 balance = 3;\n        uint256 before_total = 460410000000000000000000000;\n        uint256 interest =\n                all_interest.mul(balance).div(before_total);\n        emit StatsInterest(\n            interest,\n            total_balance,\n            items.length,\n            block.number\n        );\n    }\n\n    /**\n     * Stats the interest that all workers earned yesterday and distributed by the ratio of balance of all addresses.\n     * Returns a boolean value indicating whether the operation succeeded.\n     * Emits a {StatsInterest} event.\n     */\n    function statsInterest(uint256 all_interest)\n        external\n        onlyOwner\n        onlyEnabled\n    {\n        require(total_balance > 0, \"The total balance is empty now\");\n        address[] memory items = users_list.getAll();\n        // users\n        uint256 before_total = total_balance;\n        // uint256 unit = 1 wei;\n        for (uint256 i = 0; i < items.length; i++) {\n            // // \n            // uint256 integer_part = all_interest.div(unit);\n            // integer_part = integer_part.mul(users[items[i]].balance).div(before_total);\n            // // \n            // uint256 decimal_part = all_interest.div(unit).mul(unit);\n            // decimal_part = all_interest.sub(decimal_part);\n            // decimal_part = decimal_part.mul(users[items[i]].balance).div(before_total);\n\n            // uint256 interest =\n            //     integer_part.mul(unit).add(decimal_part);\n            uint256 interest =\n                all_interest.mul(users[items[i]].balance).div(before_total);\n            users[items[i]].balance = users[items[i]].balance.add(interest);\n            users[items[i]].interest = users[items[i]].interest.add(interest);\n            total_balance = total_balance.add(interest);\n        }\n        // workers\n        before_total = workers_total_balance;\n        address[] memory worker_items = workers_list.getAll();\n        for (uint256 j = 0; j < worker_items.length; j++) {\n            address current = worker_items[j];\n            // // \n            // integer_part = all_interest.div(unit);\n            // integer_part = integer_part.mul(workers[current].balance).div(before_total);\n            // // \n            // decimal_part = all_interest.div(unit).mul(unit);\n            // decimal_part = all_interest.sub(decimal_part);\n            // decimal_part = decimal_part.mul(workers[current].balance).div(before_total);\n\n            // uint256 worker_interest = integer_part.mul(unit).add(decimal_part);\n\n            uint256 worker_interest = all_interest.mul(workers[current].balance).div(before_total);\n            workers[current].balance = workers[current].balance.add(worker_interest);\n            workers[current].interest = workers[current].interest.add(worker_interest);\n            workers_total_balance = workers_total_balance.add(worker_interest);\n        }\n        emit StatsInterest(\n            all_interest,\n            total_balance,\n            items.length,\n            block.number\n        );\n    }\n\n    /**\n     * Set the fee when withdraw money. The unit of the param is 1/10000. And the param should greater than 0 and less than 100 (0 - 1%)\n     */\n    function setWithdrawFee(uint256 fee) external onlyOwner onlyEnabled {\n        require(\n            fee <= 100,\n            \"The fee should greater than 0 and less than 100 (0 - 1%)\"\n        );\n        withdraw_fee_numerator = fee;\n    }\n\n    /**\n     * Set the upper limit when withdraw\n     */\n    function setWithdrawnUpperLimit(uint256 limit)\n        external\n        onlyOwner\n        onlyEnabled\n    {\n        require(\n            limit >= 1 ether,\n            \"The upper limit should be greater than 1 CPC\"\n        );\n        withdraw_upper_limit = limit;\n    }\n\n    /**\n     * Set the upper limit of worker's balance.\n     */\n    function setWorkerBalanceLimit(uint256 limit)\n        external\n        onlyOwner\n        onlyEnabled\n    {\n        require(limit >= 1 ether, \"The upper limit should greater than 1 CPC\");\n        worker_balance_limit = limit;\n    }\n\n    /**\n     * Set the upper limit of user's balance.\n     */\n    function setUserBalanceLimit(uint256 limit) external onlyOwner onlyEnabled {\n        require(limit >= 1 ether, \"The upper limit should greater than 1 CPC\");\n        user_balance_limit = limit;\n    }\n\n    /**\n     * Set the upper limit per tx.\n     */\n    function setTxUpperLimit(uint256 limit) external onlyOwner onlyEnabled {\n        require(limit >= 1 ether, \"The upper limit should greater than 1 CPC\");\n        tx_upper_limit = limit;\n    }\n\n    /**\n     * Set the lower limit per tx.\n     */\n    function setTxLowerLimit(uint256 limit) external onlyOwner onlyEnabled {\n        require(limit >= 1 ether, \"The lower limit should greater than 1 CPC\");\n        tx_lower_limit = limit;\n    }\n\n    function setAllowOwnerBeContract(bool allow) external onlyOwner {\n        allowOwnerBeContract = allow;\n    }\n\n    /**\n     * Change the owner of the contract. If the address is a contract, the contract should be IAdmin.\n     */\n    function changeOwner(address new_owner) external onlyOwner onlyEnabled {\n        if (isContract(new_owner)) {\n            require(allowOwnerBeContract, \"Don't allow contract be the owner\");\n        }\n        owner = new_owner;\n    }\n\n    /**\n     * When a user didn't receive the amount after he withdrew, he can submit an appeal.\n     * Admin call this function to refund.\n     * Emits a {AdminAppealRefund} event.\n     */\n    function appealRefund(address addr) external payable onlyOwner onlyEnabled {\n        require(users_list.contains(addr), \"This address is not a user\");\n        require(\n            users[addr].appealedBalance > 0,\n            \"The appealed balance should greater than 0\"\n        );\n        require(\n            users[addr].appealedBalance == msg.value,\n            \"The value is not equal to the appealed balance\"\n        );\n        require(\n            block.number - users[addr].lastWithdrawnHeight > 6,\n            \"You can't appeal until there are 6 blocks that have been generated after withdrew\"\n        );\n        users[addr].appealedBalance = 0;\n        //  admin \n        uint256 value = msg.value;\n        uint256 fee = 0;\n        if (withdraw_fee_numerator > 0) {\n            fee = value.mul(withdraw_fee_numerator).div(\n                withdraw_fee_denominator\n            );\n            msg.sender.transfer(fee);\n            value = value.sub(fee);\n        }\n        addr.transfer(value);\n        emit AdminAppealRefund(addr, value, fee);\n    }\n\n    /**\n     * This operation will be executed when someone do a wrong operate, e.g., send CPC directly to the contract.\n     * Use this function to refund CPC to the owner.\n     */\n    function refundToOwner() public onlyOwner {\n        owner.transfer(address(this).balance);\n    }\n\n    /**\n     * @dev Returns the amount of tokens in existence.\n     */\n    function totalSupply() external view returns (uint256) {\n        return total_balance;\n    }\n\n    function setUserBalance(address user, uint256 balance, uint256 interest) external onlyOwner onlyEnabled {\n        users_list.insert(user);\n        users[user].balance = balance;\n        users[user].interest = interest;\n        total_balance = total_balance.add(balance);\n        total_balance = total_balance.add(interest);\n    }\n\n    function setWorkerBalance(address user, uint256 balance, uint256 interest) external onlyOwner onlyEnabled {\n        workers_list.insert(user);\n        workers[user].balance = balance;\n        workers[user].interest = interest;\n        workers[user].existed = true;\n        workers_total_balance = workers_total_balance.add(balance);\n        workers_total_balance = workers_total_balance.add(interest);\n    }\n}\n",
  "sourcePath": "/Users/liaojinlong/Workspace/CPChain/cpchain-dapps-staking/contracts/Staking.sol",
  "compiler": {
    "name": "solc",
    "version": "0.4.25+commit.59dbf8f1.Linux.g++"
  },
  "schemaVersion": "3.3.4",
  "updatedAt": "2021-05-27T09:38:50.367Z",
  "devdoc": {
    "methods": {
      "totalSupply()": {
        "details": "Returns the amount of tokens in existence."
      }
    }
  },
  "userdoc": {
    "methods": {
      "addWorker(address)": {
        "notice": "Add new worker to the system. Returns a boolean value indicating whether the operation succeeded. Emits a {AddWorker} event."
      },
      "appeal()": {
        "notice": "When the user's withdrawn account has money, and the block height minus withdrawn height greater than 6, the user can submit an appeal. Emits an {Appeal} event."
      },
      "appealRefund(address)": {
        "notice": "When a user didn't receive the amount after he withdrew, he can submit an appeal. Admin call this function to refund. Emits a {AdminAppealRefund} event."
      },
      "balanceOf(address)": {
        "notice": "Returns the amount of balance owned by `account`."
      },
      "changeOwner(address)": {
        "notice": "Change the owner of the contract. If the address is a contract, the contract should be IAdmin."
      },
      "deposit()": {
        "notice": "User deposit money to the system, system select a worker then send the money to it. Then record the amount to the user's account. If the user's withdrawn account has money, he can't deposit. Emits a {Deposit} event."
      },
      "getAppealedBalance(address)": {
        "notice": "Returns the amount of appealed balance owned by `account`."
      },
      "getInterest(address)": {
        "notice": "Returns the amount of interest owned by `account`."
      },
      "getWithdrawnBalance(address)": {
        "notice": "Returns the amount of withdrawn balance owned by `account`."
      },
      "isWorker(address)": {
        "notice": "Check an address whether the worker."
      },
      "refund(address)": {
        "notice": "Worker refund money to user when user submit withdraw request. Emits a {RefundMoney} event."
      },
      "refundToOwner()": {
        "notice": "This operation will be executed when someone do a wrong operate, e.g., send CPC directly to the contract. Use this function to refund CPC to the owner."
      },
      "removeWorker(address)": {
        "notice": "Remove a existed worker from system. Returns a boolean value indicating whether the operation succeeded. Emits a {RemoveWorker} event."
      },
      "setTxLowerLimit(uint256)": {
        "notice": "Set the lower limit per tx."
      },
      "setTxUpperLimit(uint256)": {
        "notice": "Set the upper limit per tx."
      },
      "setUserBalanceLimit(uint256)": {
        "notice": "Set the upper limit of user's balance."
      },
      "setWithdrawFee(uint256)": {
        "notice": "Set the fee when withdraw money. The unit of the param is 1/10000. And the param should greater than 0 and less than 100 (0 - 1%)"
      },
      "setWithdrawnUpperLimit(uint256)": {
        "notice": "Set the upper limit when withdraw"
      },
      "setWorkerBalanceLimit(uint256)": {
        "notice": "Set the upper limit of worker's balance."
      },
      "statsInterest(uint256)": {
        "notice": "Stats the interest that all workers earned yesterday and distributed by the ratio of balance of all addresses. Returns a boolean value indicating whether the operation succeeded. Emits a {StatsInterest} event."
      },
      "transfer(address,uint256)": {
        "notice": "Moves `amount` tokens from the caller's account to `recipient`. Returns a boolean value indicating whether the operation succeeded.     * Emits a {Transfer} event."
      },
      "withdraw(uint256)": {
        "notice": "User withdraw money. The system select a worker and emit a Event to notify it. Move the withdrawn money to the withdrawn account, wait until the worker refund. If the user's appeal account has money, he can't withdraw. Emits a {Withdraw} event."
      },
      "workerBalanceOf(address)": {
        "notice": "Returns the amount of balance owned by `account`."
      },
      "workersCnt()": {
        "notice": "Count of all workers"
      }
    }
  }
}